:100000000C94BF140C94E7140C94E7140C94E714AC
:100010000C94E7140C94E7140C94E7140C94E71474
:100020000C94E7140C94E7140C94A22C0C94112D4E
:100030000C94E7140C94E7140C94E7140C94E71454
:100040000C94E7140C94E7140C94E7140C94E71444
:100050000C94E7140C94E7140C94E7140C94432FBD
:100060000C94E7140C94E7140C94E7140C94E71424
:100070000C94E7140C94E7140C94E7140C94E71414
:100080000C948D2F0C94E7140C94E7140C94E71443
:100090000C94E7140C94E7140C94E7140C94E714F4
:1000A0000C94E7140C94E7140C94E714080800006F
:1000B000000000000000000030002010000004805C
:1000C000000020000200081408E2451228100C0E5F
:1000D0006AF6B09060001EB3DFDFB3935F0E00CF0F
:1000E000300304186483AA15BF007F43404040409A
:1000F000407F00BF15AA3FBF20A120A020A020A0C4
:1001000020A020A03FBF6DFBBF57EDBDDBEE8040C0
:100110006080640CF040092A12242748B3CC3C08C4
:10012000C4B6249248178E556892640CF142092A8D
:1001300012242748B3CC0000000000403FFFB0531A
:100140006C82640CF1423F08C4B6249248037EE1FD
:100150005C423925510A3D7F8000000000003E08C6
:10016000C4B4209000005EE15C423925510A00F8D9
:1001700004E6A26202C220075409A80950130686A9
:10018000868C1CF8F0005017A223A07F7F00AA5491
:10019000FE02FA0A0A0A0A0A0AFA02FE54AAFEFE35
:1001A000062686462606060606060606FEFE6FDFBD
:1001B000B8B7B7B7B7B7B7B7B7B7B7B7B7B7B7B7CE
:1001C000B7B7B7B8DF6FFFFFFFFFFF00FFFFE3E345
:1001D000E3E3C307FEFCE3E3E3E3E3E3E3E3FCFE83
:1001E00007C3E3E3E3E3FFFF00FFFFFFFFFF0000C0
:1001F000000000000000001C3800180C0000048003
:1002000000002000020010281245E2081408020E27
:10021000162A24283000025020102E0E0C00000652
:1002200088FFF76B8C02ACEECE003F7F7F7FFFFB39
:10023000F3FF00AEEEEA6EEEE06F68E8E8EFC3DCD5
:10024000D0E8AFA0EACEA64CD1EFD1AB6CA6081196
:10025000261C0A503065040CCB4938303432A29247
:10026000042811E39A04B2E1E3E6CCF87FF0081029
:1002700010337FDEBFFF000080E038BF5D3E80644A
:100280001C18FF20106C70EB7CC6E371188CFFBF4C
:10029000DF391C0E0301DE1D7FB860C080003269AB
:1002A000C44034100E0186C3407C22221008048012
:1002B0000030303060FE20005000A000403FFE6063
:1002C000C0C0C00002007F808000A0000200EFEFED
:1002D000AD01F3FBFBFAE202E6F602F6ECEEE6EE27
:1002E00003FB0A0A0BFB1313130BFB03CEEC7E7FFD
:1002F0003F007FFF1F007E7F3B006FFFFB00007F02
:100300007F07001F7F7F00DFF73C00FBEF3F00F31C
:10031000FFFE00F8DE8CFECEFF003FFEFF00FC7EFD
:10032000FF00FCFFE7007FFFE7003FFDF700000054
:10033000000000000000000008100030080000026B
:10034000002000000004102810000008140800001D
:100350001028243830001C1E36723E721C0054A334
:1003600014A95E0BD02AFF6F10FF90EF81FE90EF73
:1003700081FE90FF00FE10EF00DF10B010D01FD004
:1003800010B010DF01FE7FF6DF7AFCBEEB46207076
:100390004C40902840800502824E31405049000078
:1003A0000050BC00107FC6F8E0AE53F0B89E0000CD
:1003B000010307FFF9F60080C040E0F07B3FC0C0BA
:1003C000601008040402030100008080C3E4EE070B
:1003D0000703010000005F7FF0C080000000800084
:1003E0000E90A0C000007C331018180F040220608B
:1003F0004EF060028CF00001022183C776B9389C70
:100400008794E0C0A004FF7C832100000004FEEE7E
:1004100010FC14EC04FC14EC04FC14FC00FE10EEC4
:1004200000F6101A1016F016101A10F600FEFFFF54
:10043000C0D5D9D5D5D5E6D5D5D5D9D5D5D5E6D557
:10044000D5D5D9D5D5FF66555555995555FF65551F
:100450005555995555FF6555555599555555FFFFB6
:10046000015599555555FFFF0055995555550808A3
:1004700000080C7E7E0C0800000203BFBF030200D0
:100480000080C0E7E7C08000002030F9F93020008C
:10049000001818187E3C18001800181818187E3C10
:1004A0007E3C18000018181818187E3C1800001818
:1004B0000010307E7E3010000040C0FDFDC04000C6
:1004C000000103E7E703010000040C9F9F0C0400F8
:1004D00000183C7E181818003C7E181818180018D0
:1004E0001818180000183C7E180000183C7E1818D8
:1004F0000808FFFFFFFFFFFFFFFF10100000C020F4
:10050000F010F010F010F020C080000000003F203C
:100510003F203F203F203F203F1000000000000010
:1005200000000000000000FCFC00000000000000D3
:10053000000000000000003F3F000000000000003D
:10054000000000000000000000000000000018187B
:10055000181818181818181818180000000000FCAF
:10056000FC00000000000000000000000000003F50
:100570003F00000000000000000000001010FFFF1E
:10058000FFFFFFFFFFFFFFFFFFFFFFFFFFFFFFFF7B
:10059000FFFFFFFFFFFFFFFFFFFFFFFFFFFF080859
:1005A0003C7E66FFDBFFBDFFBDFFDBFF66FF3C7EE1
:1005B000003C3C7E42FFBDFFC3FF7EFF3C7E003C13
:1005C0000000007E7EFFDBFFFFFF7EFF007E00005D
:1005D0000000000000FFFFFFFFFF00FF0000000021
:1005E0000000007E7EFFFFFFDBFF7EFF007E00003D
:1005F000003C3C7E7EFFC3FFBDFF42FF3C7E003CD3
:100600001E3F317F61FFC2FFC2FF61FF317F1E3F8E
:10061000001E1E3F21FFC2FFE1FF3FFF1E3F001EE5
:100620000000003E3EFFC3FFFFFF3EFF003E000014
:100630000000000000FFFFFFFFFF00FF00000000C0
:100640000000003E3EFFFFFFC3FF3EFF003E0000F4
:10065000001E1E3F3FFFE1FFC2FF21FF1E3F001EA5
:100660001C10000000F8F8FC04FE02FFFAFF22FF55
:1006700022FFFAFF02FFFAFFAAFFAAFF8AFF02FF8A
:10068000FAFF82FF82FF82FF02FFFAFF2AFF2AFFA2
:100690003AFF02FF04FEF8FC00F80006060F091FEF
:1006A000040F0207020702070207020702070207F8
:1006B00002070207020702070207020702070207F2
:1006C00002070207020702070207020701030001EF
:1006D0000000101004C62E1FEFDE4FD7DE6FE7DEDE
:1006E0003C10E00000000D0C615B52A3A3525B6163
:1006F0000C0D0000088C5C3EDEBC9EAEBCDECEBCA9
:100700007820C00000010C0C635754A7A75457630E
:100710000C0C0100088C5C3EDEBC9EAEBCDECEBC88
:100720007820C00000011818435755A7A755574314
:100730001818010004C62E1FEFDECFD7DEEFE7DE6C
:100740003C10E00000001918415B53A3A3535B4128
:10075000181900000000C082DEDC1EDEDE1EDCDEBA
:1007600082C0000000000C0C31BBBB3131BBBB317F
:100770000C0C000000008004BCB83CBCBC3CB8BC05
:100780000480000000000D0D31B7B63333B6B73129
:100790000D0D000000008004BCB8BCBCBCBCB8BCE3
:1007A000048000000000191923B7B63333B6B7230D
:1007B000191900000000C082DEDCDEDEDEDEDCDED9
:1007C00082C000000000181821BBBB3131BBBB2127
:1007D0001818000000000070B0C46CDCD26CCCB003
:1007E000700000000000000C0DC3EA2B2BEAC30DC3
:1007F0000C000000000000E06088D8B8A4D8986021
:10080000E00000000000000C0DC3E42727E4C30D46
:100810000C000000000000E06088D8B8A4D8986000
:10082000E0000000000000181BC7E52727E5C71BF4
:100830001800000000000070B0C4ECDCD2ECCCB0BA
:10084000700000000000001819C3EB2B2BEBC3193C
:10085000180000000000E04034D4D63636DAD83430
:1008600048E0000000000C0C614A5A13135A4A6118
:100870000C0C00000000C08068A8AC6C6CB4B068C0
:1008800090C0000000000D0C6245550606554562FB
:100890000C0D00000000C08068A8AC6C6CB4B0689F
:1008A00090C0000000001918424555060655454203
:1008B000181900000000E04034D4D63636DAD834B7
:1008C00048E0000000001818414A5A13135A4A41E0
:1008D0001818000000000030DCEE36EAEE34EEDCE2
:1008E000300000000000080D327D797979797D3281
:1008F0000D08000000000060B8DC6CD4DC68DCB8D7
:10090000600000000000080C317B727373727B3151
:100910000C08000000000060B8DCECD4DCE8DCB8B7
:10092000600000000000101A217B727373727B213B
:100930001A10000000000030DCEEF6EAEEF4EEDC07
:100940003000000000001019247D797979797D2428
:10095000191000001010DEFFFFFFFFFFFFFFFFFF79
:10096000FFFFFEFCF0E0013F3F7FFFFFFFFFFFFFC7
:10097000FFFF7F3F3F0300C0F6FFFFFEFFFFFFFFCB
:10098000FEFFFFF6C000001D3F7FFFFFFF7F7FFFE0
:10099000FFFF7F3F1D000000F0F8FCFEFFFFFFFEA1
:1009A000FEFCF8F0000000001C3F7FFFFF7F7FFF90
:1009B000FF7F3F1C000000E0F0FCFEFEFFFFFFFF9A
:1009C000FEFEFCF8E000001D3F7FFFFFFF7F7FFF82
:1009D000FFFF7F3F1D00000070FCFEFFFFFFFFFFD9
:1009E000FFFEFC700000001C3F3F7FFFFFFFFFFF8A
:1009F000FF7F3F3F1C001010004CFE3E7EE6C6FE0F
:100A0000740870F0E0C000000000010E527B6B61C2
:100A10000C1F3CA3DFF720000026FF1F3FF3E3FF7E
:100A20003A8438F8F0E000000000000F11050DB026
:100A3000F6EFDC110F1B10000080E0F030F88800AA
:100A4000F0E2337FFEC6CE3C00372F001F2F270079
:100A500080F9F20203596C000000C0E060F0100061
:100A6000E0C466FEFC8C9C78006F5F010EE7F380AB
:100A70000103547407B3D90010107EFFFFFFFFFF7E
:100A8000FFFFFFFEFCFCF8F0E00000010F5FFFFF3E
:100A9000FFFFFFFFFFFFFFFFFF3080E0F0F8F8FCF3
:100AA000FCF8FEFFFFFFFFFFFFFE7FFFFF7FFFFF62
:100AB000FFFFFFFFFFFFFFFFFFFD10100000808022
:100AC000803C6767AFB9B99F4B8C000000030103FE
:100AD000B9DDBC0B091BBDDDE30300000000808015
:100AE000803C6767AFB9B99F4B8C000000030103DE
:100AF00001BDDCAB011B9DEDD30300000000808035
:100B000080BC27A7CFD9D99FCB8C0000000301035D
:100B1000011CBCC11C1DECE0010100000080C0C034
:100B2000C05C33B3D7DCDC97DB9A00000001000126
:100B300000001CA1DC1DECE00101000000C060E031
:100B4000405C39B1D3DFDC9CDB9A00000000000080
:100B50000C5D6C35001D1CECE10100000080C0C084
:100B600080BC6667AFB9B9BF579800000001001993
:100B7000BCDCB403011BBDDDE3030000000080808A
:100B800000709E9E32727E6EB61000000003113B14
:100B9000B9DDA8061337BBDBE2030000000000004C
:100BA00000709E9E32727E6EB61000000006031723
:100BB000B9DDA8060337BBDBE2030000008C4B9FC6
:100BC000B9B9AF67673C8080800000000003E3DDB7
:100BD000BD1B090BBCDDB90301030000008C4B9F5A
:100BE000B9B9AF67673C8080800000000003D3ED97
:100BF0009D1B01ABDCBD010301030000008CCB9FFA
:100C0000D9D9CFA727BC808080000000000101E077
:100C1000EC1D1CC1BC1C010301030000009ADB9702
:100C2000DCDCD7B3335CC0C0C0800000000101E051
:100C3000EC1DDCA11C00000100010000009ADB9CFF
:100C4000DCDFD3B1395C40E060C000000001E1ECC2
:100C50001C1D00356C5D0C0000000000009857BFA3
:100C6000B9B9AF6766BC80C0C08000000003E3DD97
:100C7000BD1B0103B4DCBC19000100000010B66EFE
:100C80007E72329E9E700080800000000003E2DBD6
:100C9000BB371306A8DDB93B110300000010B66E88
:100CA0007E72329E9E700000000000000003E2DBB6
:100CB000BB370306A8DDB917030600001010C0E01B
:100CC000F0F0FCFFFFFFFFFFFFFFFFFF9E00071F8D
:100CD0003FFFFFFFFFFFFFFFFFFFFFF703009EFF48
:100CE000FFFFFFFFFFFFFFFFFCF0F0E0C00003F796
:100CF000FFFFFFFFFFFFFFFFFFFF3F1F070002088F
:100D0000030310100E070F3ABC3EDECEBEBE3EBC43
:100D10003A0F070E000000000D1A53136BBBBA7593
:100D2000180000001E0F071DDE1FEFE7DFDF1FDECC
:100D30001D070F1E00000000366D6909355D5D3A24
:100D40000C0000000E070F3ABC3EDECEBEBE3EBC1D
:100D50003A0F070E000000006D5A13136BBBBA75F3
:100D6000180000001E0F071DDE1FEFE7DFDF1FDE8C
:100D70001D070F1E00000000366D6909355D5D3AE4
:100D80000C00000000000C3E3FCFDEBE3EBEBC7E2D
:100D9000770F070E006090B87B136B6B2A331D0032
:100DA000000000000000061F9FE7EFDF1FDFDE3FAF
:100DB0003B070F1E0030485C3D09155555590E0084
:100DC0000000000000000C3E3FCFDEBE3EBEBC7EF9
:100DD000770F070E006090B87B132B2B2A335D60D2
:100DE000000000000000061F9FE7EFDF1FDFDE3F6F
:100DF0003B070F1E0030485C3D09155555590E0044
:100E0000000000000000003CCE1EBEBE7E7E7E7B49
:100E10000707030618243C3C436A2B331A4D000095
:100E2000000000000000001EE70FDFDF3FBF3E3B79
:100E300007070E000C121E1E011555596D06000005
:100E4000000000000000003CCE1EBEBE7E7E7E7B09
:100E50000707030618243C3C432A2B335A6D4000F5
:100E6000000000000000001EE70FDFDF3FBF3E3B39
:100E700007070E000C121E1E011555596D060000C5
:100E80000000000000000038DC3C76EEEEECC2FE14
:100E9000FE0E0C0000000E1C1B52590415450901E2
:100EA000000000000000001CEE1EB36FEFDDC3FE6B
:100EB0007E0E1C000000070E0D296C420A220C0059
:100EC0000000000000000038DC3C76EEEEECC2FED4
:100ED000FE0E0C0000000E1C5B5219041565690122
:100EE000000000000000001CEE1EB36FEFDDC3FE2B
:100EF0007E0E1C000000070E0D296C420A220C0019
:100F0000000000001C0E1EDEECFEFEFEFEFEFEECEF
:100F1000DE1E0E1C000000050B2305656565230B16
:100F2000050000003C1E1EE6FFFFFFFFFFFFFFFF66
:100F3000E61E1E3C0000000205112A0A6A723105F5
:100F4000020000001C0E1EDEECFEFEFEFEFEFEECAD
:100F5000DE1E0E1C000000050B6365551525230BD6
:100F6000050000003C1E1EE6FFFFFFFFFFFFFFFF26
:100F7000E61E1E3C0000000205112A0A6A723105B5
:100F800002000000000C0EFEFEC2ECEEEE763CDC31
:100F90003800000000000000010945150459521BEB
:100FA0001C0E0000001C0E7EFEC3DDEF6FB31EEEB4
:100FB0001C00000000000000000C220A426C290DF9
:100FC0000E070000000C0EFEFEC2ECEEEE763CDCDE
:100FD0003800000000000000016965150419525B2B
:100FE0001C0E0000001C0E7EFEC3DDEF6FB31EEE74
:100FF0001C00000000000000000C220A426C290DB9
:101000000E070000060307077B7E7E7EBEBE1ECE57
:101010003C0000000000000000004D1A332B6A4322
:101020003C3C2418000E07073B3EBF3FDFDF0FE7C5
:101030001E000000000000000000066D595515015B
:101040001E1E120C060307077B7E7E7EBEBE1ECED2
:101050003C0000000000000000406D5A332B2A4382
:101060003C3C2418000E07073B3EBF3FDFDF0FE785
:101070001E000000000000000000066D595515011B
:101080001E1E120C0E070F777EBCBE3EBEDECF3F8B
:101090003E0C000000000000001D332A6B6B137B28
:1010A000B89060001E0F073B3FDEDF1FDFEFE79FBA
:1010B0001F06000000000000000E59555515093D9F
:1010C0005C4830000E070F777EBCBE3EBEDECF3FD1
:1010D0003E0C000000000000605D332A2B2B137BC8
:1010E000B89060001E0F073B3FDEDF1FDFEFE79F7A
:1010F0001F06000000000000000E59555515093D5F
:101100005C48300010103F1F7FFFFFFFFFFFFFFF15
:10111000FFFFFF7F1F3F0000007FFFFFFFFFFFFF7C
:10112000FFFF7F1C0000000E7FFFFFFFFFFFFFFFA0
:10113000FFFFFFFF1F3F70F8FCFFFFFFFFFFFFFFF8
:10114000FFFF6000000000003EFFFFFFFFFFFFFF0A
:10115000FFFF7F0F1F1F3E7F7FFFFFFFFFFFFFFF90
:10116000EFC0000000000000BCFEFFFFFFFFFFFF1C
:10117000FFFFFFFF3E3C000F1F7FFFFFFFFFFFFF52
:10118000FFEF010000007E3FFFFFFFFFFFFFFFFFBB
:10119000FFFFFFFF3F7E0000070F7FFFFFFFFFFF06
:1011A0007F3F0F0700003C3EFFFFFFFFFFFFFFFFF9
:1011B000FFFFFEBC000000000001EFFFFFFFFFFF8C
:1011C000FFFF7F1F0F001F1F0F7FFFFFFFFFFFFFAE
:1011D000FFFFFF3E000000000000C0EFFFFFFFFF29
:1011E000FFFFFF7F7F3E3F1FFFFFFFFFFFFFFFFF70
:1011F000FFFFFF7F0E0000000060FFFFFFFFFFFF0B
:10120000FFFFFFFCF87009080006060F0F1F1F3FC5
:10121000227F113F091F060F00060006060F0F1F51
:101220001F3F3E7F1F3F0F1F060F00060012127F59
:101230004FFF53FF1F7F53FF4EFF107E0010003EF5
:101240003E7F41FF55FF5DFF7FFF49FF77FF49FF6D
:101250007FFF41FF7FFF7DFF41FF7DFF3E7F003E1F
:101260000000003E3E7F7FFF41FF41FF41FF7FFFC7
:1012700041FF41FF41FF7FFF41FF41FF41FF7FFFF2
:101280003E7F003E000009080006060F0F1F1F3FAB
:10129000227F113F091F060F00060006060F0F1FD1
:1012A0001F3F3E7F1F3F0F1F060F00060012127FD9
:1012B0004FFF53FF1F7F53FF4EFF107E0010003E75
:1012C0003E7F41FF55FF5DFF7FFF49FF77FF49FFED
:1012D0007FFF41FF7FFF7DFF41FF7DFF3E7F003E9F
:1012E0000000003E3E7F7FFF41FF41FF41FF7FFF47
:1012F00041FF41FF41FF7FFF41FF41FF41FF7FFF72
:101300003E7F003E00000208020700073817150064
:10131000170A001202023E17130737001F020015BA
:10132000220A261E370D3800190D3E1C2414121EE9
:10133000300D070005152B00040302000A141D00E0
:101340002C1C001C2C0A181E1D0C320032063C00FE
:1013500003132100210A0002331C16001F03001290
:10136000270F0F001B12000603031C1E3A1B0C0064
:10137000031B3E0F320D00040E02021C23021F1E2F
:101380003B030B1E030C3C00230A130A021C3E1CE9
:101390002409240035161E1E1A0B3E1607183800A5
:1013A0000B173E1C0E1800123B020D1E11110200FD
:1013B0003C02301E3C1C1A001414230003050300D9
:1013C0003B1C2C1E090B000B321500063C1C0200B6
:1013D0003C020006120D251E0B02331E26160F00BE
:1013E0002F023E023619171E0B130007230A3E1266
:1013F0001B0721000602151E131300083B1C2300C7
:101400002412000321031C000303231E11073B00C9
:101410003816021E1804000E22141500150C191E91
:101420001C141B0033183E1C3B1C00033B023E02F5
:101430000305001C1802111E20190A000B140300DA
:101440002602001B02123E1C02023E041F081F1E41
:1014500021022B1E021C25001F1A0010230B39002D
:10146000021C1F1E0C0F3E122A0B1B001212000939
:101470002B0F2F1E151C3E1223193200040E3E1B8B
:101480001702001C1A0C3C1E231703002311131E05
:101490000C0D3E0C170A2B003C1C00072B1B1F00D9
:1014A0001406261E1F0F1A1E1F0C0C00021C3E1CC9
:1014B0001F0B0800021C3E1C0A022A1E19030A0008
:1014C00006193A002C1C3B003B02120002023E07A8
:1014D000190E3E1C241C1F003801120002023E0D92
:1014E0001F1800060C0F1B1E3A1B0C0024123E1284
:1014F0003B1C001332122B001C031F1E230200048E
:101500002E1533000E122C1E04033E0F181D040C62
:101510002F0B021C3A1C1F1903063C020C122D0C47
:10152000261010163204021C38192F0913173C021A
:1015300008101C0E370E06022C02021B12123B0F63
:1015400002092D0A0B171C143C0202022102021C84
:101550003B1B2A0A040A1F1214142E1B08053414FC
:101560002314100A3A02391B130A25033B02020A0C
:101570003802291C02022802171C3C1C2A0A0202FB
:101580001514241C3C023313230C021C0202120209
:1015900005021D1C33172602370F180A2C0A0205F4
:1015A00002122202021C1D0C3C1C02021307011D28
:1015B0002B133D140B172B071C1C321C1102081592
:1015C000320217123C120A02021C2A0A0B1C1F0FBD
:1015D0000B05140A3C122F0317130F03021C1303ED
:1015E000381B09143803270F031B300D1E04090292
:1015F0002A14180A021C2A130D1333073307191C67
:101600000A0A220A021C33171B1C0404180F2B079A
:101610000D0D241212023A04021C0E02021C3B1B86
:1016200014123C022A051B130F0E021C37150C0561
:1016300002123C1C220D1912340A2612021C1C0232
:1016400021053412130A360322030C16341000F855
:10165000FFFFFF7F0100000000F8FFFFFFDFCFCF9B
:101660004F0700FFFFFFFFFF00E0FEFFFF3F0F01FE
:10167000F8FFFFFFDFCFCF4F0700F8FFFFFF7F012D
:101680000000FEFFFFFFFFF0F0F01080FEFFFFFF05
:10169000F7F3F3F30000001FFFFFFFFFFFFF3F071B
:1016A000010080FEFFFFFFF7F3F3F30080FEFFFF72
:1016B000FFFFF0F0F0102208C0FFD9D9FF77007CBF
:1016C000FFC3E17F1F80FE0F3FF8FE1F007CFFC3BA
:1016D000C07C3F0160C6CFF973011A1ECF1DE81D03
:1016E000CF1DB21DCF1D802B2A08E0FE3FF0FF1F4B
:1016F0000178FEC7C3E37F1E00F8FF19F9FF0780DA
:10170000FE3FFFF03CFFFF0780F83E27FFFF008011
:10171000F8FFC7C02E0880FE3FFFF03CFFFF0780A8
:10172000F83E27FFFF000083FF7C0F0300C0FEFF91
:101730001BF8FF0F0180FEFFD9D90180FE3FFFF0AB
:101740003CFFFF073608F0FF19191F0F00F8FF19BB
:10175000F9FF0780FEFFD9D90160C6CFF973016098
:10176000C6CFF973010000000080FE3F3CFFC301BB
:1017700080FEFFD9D9010083FF7C0F035410013F85
:10178000FFFFFFF0F0FEFF3F0F07C1F0FCFE3E1F22
:101790000F0FFFFEFEF880FFFFFF7F0100F8FFFF45
:1017A000FF3F010000000000FFFFFFFF03E0FCFF20
:1017B000FFFFFF00F0FFFF7F1FC3F0FCFE3E1F0F87
:1017C0000FFFFEFEF800F8FFFFFFFFFFF0C0FFFF76
:1017D000FF1F0000FFFFFFFF3F03000000001F7F0F
:1017E0007FFFF0F0F87C7F3F0F033F7FFFFFF0F0BB
:1017F000FE7F7F3F0700000000000000FFFFFFFFAB
:10180000FE3F0700FFFFFFFFFF1F0300001F7F7F5A
:10181000FFF0F0F87C7F3F0F83FEFFFF7F003FFF6C
:10182000FFFFFFFF0700CF1DCF1DCF1DCF1D951D53
:101830006A10C0F0FCFE7E1FCFCFDFCFC6C2000013
:1018400000E0F8FFFF1FFFFFFFF8000000F8FFFFB8
:10185000FFFFFFFE80E0FC7FFFFFFFFF1F0000F89F
:10186000FFFFFFDFCFCF4F070000000000C0F0FCFC
:10187000FE3E1F0F0FFFFEFEF800FFFFFFFFFF0001
:10188000E0FEFFFF3F0F01F8FFFFFFDFCFCF4F0765
:1018900000F8FFFFFFFF8F8FFFFFFE7C1F3F7FFFE2
:1018A000F8F2F3FFFF7F1F80E0FCFFFF3F1F1CFCEF
:1018B000FFFFFFFF0080FEFFFF7F01FFFFFF7F0FA5
:1018C000C3FFFFFFFF030080FEFFFFFFF7F3F3F30B
:1018D000000000000000001F7F7FFFF0F0F87C7F19
:1018E0003F0F03001FFFFFFFFFFFFF3F07010080C7
:1018F000FEFFFFFFF7F3F3F300C0FEFFFFFF070F4C
:10190000FFFFFFFDC0003A1000F0FFFFFFFF8F8FC9
:10191000FFFFFE7C0000E0F8FFFF1FFFFFFFF80065
:101920000080FFFFFF7F0100F8FFFFFF3F0100F88D
:10193000FEFEFFCF8F1F0F0602F8FFFFFFDFCFCFA6
:101940004F07FCFFFFFF1F070707070381E0FCFFAE
:10195000FF3F1F1CFCFFFFFFFF00003F7FFFFFF06A
:10196000F0FE7F7F3F074070F8F0F1F3FF7F7F1FAD
:101970000080FEFFFFFFF7F3F3F300000620C4949E
:1019800034044CF8FFFF00F80C07FF7F0003CEF88B
:10199000080A0B080C073E2000000000000000F8B9
:1019A0004C043494C4E4E4E46424AC28282C2424B7
:1019B00064E4E4ECECE4242CE8E8E82828E82828AF
:1019C000EC242424242C7CEC2424E4E42424E46467
:1019D0002C2CE42464EC000000000080C0474CD0B4
:1019E000803FFFFF87B338B9D9410000183838B3BA
:1019F00087FFFFFFF8E0838F83E0F8FF8080FF819F
:101A000081E3C1889CFFC0809F9F80C0FFCC88F885
:101A10008382C6FFF0F8C09EBFBF3C3898CC073029
:101A200071C0C04372604C5E525E4C607243404075
:101A3000F1FF80809F9FFFC1C08E80A0FF8080F655
:101A4000F0F0FFF3F3FEFE8E82F0F8FFB0B6B68042
:101A500080FF0001010101000000030604040404EA
:101A6000003E7F411C3E7F7F7F7F6341633E0004D9
:101A70000C08080C0C0808181018080808080808B2
:101A800008080808080808080808080808080808D6
:101A90000B0B0B0B0B0B0B0B0B06060606060606B9
:101AA0000B000000000000000B000000010000001F
:101AB0000B000100000001000B000000010000000D
:101AC0000B000100000004000B00000001000000FA
:101AD0000B0B0B0B0B0B0B0B06060606060606067E
:101AE00000000000000000000300000001000000F2
:101AF00000000100000001000100000001000000E2
:101B000000000100000001000100000003000000CF
:101B10000B0B0B0B0B0B0B0B060606060606060B38
:101B2000000000000000000B010000000100000B9D
:101B3000000004000000000B010000000100000B89
:101B4000000001000000000B010000000100000B7C
:101B50000B000100000001000B000000010000006C
:101B60000B000100000001000B000000030000005A
:101B70000B000100000001000B000000010000004C
:101B80000B000100000001000B000000010000003C
:101B90000000010000000100010000000100000041
:101BA0000000010000000100010000000100000031
:101BB0000000010000000100010000000100000021
:101BC000000003000000010001000000010000000F
:101BD000000001000000000B010000000100000BEC
:101BE000000001000004000B010000000100000BD8
:101BF000000001000000000B030000000100000BCA
:101C0000000001000000000B010000000100000BBB
:101C10000B000100000001000B00000001000000AB
:101C20000B000100000001000B0000000400000098
:101C30000B000100000001000B000000010000008B
:101C40000B000000000000000B0B0B0B0B0B0B0B31
:101C50000000010000000100010000000100000080
:101C6000000001000000030001000000010000006E
:101C70000000010000000100010000000100000060
:101C800000000000000000000B0B0B0B0B0B0B0BFC
:101C9000000001000000000B010000000100000B2B
:101CA000000001000000000B010000000100000B1B
:101CB000000001000000000B010000000100000B0B
:101CC000000000000000000B0B0B0B0B0B0B0B0BB1
:101CD0000000010000000100010000000100000000
:101CE00000000C0E1216010001000D0F131700006A
:101CF0000000011014000100010000111500000097
:101D000000000100000003000100000001000000CD
:101D1000020202020202020202181A0202181A0247
:101D200002191B0202191B02020202020202020233
:101D3000020202020502020202181A0202181A0224
:101D400002191B0202191B02020202020202020213
:101D50000B0B0B0B0B0B0B0B0606060606060606FB
:101D60000202020202020202020202020202020253
:101D7000020202020202020202181A0202181A02E7
:101D800002191B0202191B020202020202020202D3
:101D9000020202020202020202181A0202181A02C7
:101DA00002191B0202191B020203020202030202B1
:101DB0000202020202020202020202020202020203
:101DC00002020202020202020B0B0B0B0B0B0B0BAB
:101DD00002020202020202020102030202020402E1
:101DE00002020202020202020202020202020202D3
:101DF00002020202020202030205020202020202BF
:101E000002020202040202020202020202020202B0
:101E1000000001000000000B010000000100000BA9
:101E200000000C0E1216000B01000D0F1317000B13
:101E3000000001101400000B010000111500000B40
:101E4000000001000000000B010000000100000B79
:101E50000B0B0B0B0B0B0B0B062625252525240640
:101E600000272727232323000127272723232300B5
:101E70000020212121212200011C1D1E1F1E1F00E8
:101E8000000708090A090A0001000000010000001B
:101E900001111112395F4FF539544445678777783E
:101EA0000111111235FF399E024701456777777896
:101EB0000111111235FF4FFE0244404E67777778CB
:101EC0000BBB11123DAD0F253DAA64856CCC777814
:101ED0000F1BB1F2393DD595390BB295677CC778A8
:101EE000011111123D3F02DE3A673EDE6CCC77787D
:101EF0000F1211F23494449E01149112677877788E
:101F0000011111123F2440F5348BB645677777787D
:101F1000011111123F14242539468485677777789B
:101F200001111112301FF19539777785677777782E
:101F300002F2F2F2344E444E3E444E4568787878D0
:101F40000011111231F3F0F53673467E677776781B
:101F50000011111233F68F253677788567777778F9
:101F60000F0F0F1234343445313442AE677768C8EE
:101F70000111111268F1F29E3447789E67777778E5
:101F80000F0F0F023737373E3949494E6777777859
:101F90000BBBBBF23AA99ADE3AA99ADE6CCCCCC84C
:101FA00002121BF233555AA53EE9EA0568787C68AF
:101FB00000111102333E111534FF40926677767896
:101FC0000B0112F23129904E341991456C6778C893
:101FD0000FFFFFF2344444453FFF9FF26777777865
:101FE00001111112399999953999999567777778EF
:101FF000011111F23E4443953EBB30F267CC677845
:10200000011111B233F1F2A530F1F2A5667777C86C
:10201000011111B2301902A5330925F267877778CB
:102020000BBFBBB23AADAAA53AADAAA56CCCCCC841
:102030000F0F11123439ED3531012D0267767778A3
:1020400001F111123344999531131F156776778882
:10205000011BB01239EAAF9E39EAAD9E677CC778A2
:1020600002BB2F1231DD04E5042121256878787840
:10207000011211123111112531F11F15677877788E
:1020800000F10B0233B3BD2536B3F32E67777678B4
:102090000810E0FC3E0F070FFFFE3F7FF8F0F0F85E
:1020A0007F1F00001CFEFFFF00000000E0FFFF7F1D
:1020B0006000001C1E0783C7FF7EF0FCEEE7E361B3
:1020C0007070000E0F87C3E7BF1E70F8F8F0E0F1E4
:1020D0007F3FC0F0FC8F83FFFEC003030303FFFFBD
:1020E0007F0000FEFEC7C7C7C78378F8F0E0E0F1C5
:1020F0007F3FE0F8BCCEC7C380003F7FF1E0E0F156
:102100007F3F0E0F0F07C7F37F0F0000F0FE1F0386
:102110000000007CFEE7C3E77F3E3E7FF3E1E1F392
:102120007F3EFCFE8F07078FFEFC0001C3E3733D7B
:102130001F070808007C7CFEFEFFC7FFE3FF7FFF50
:102140003E7F003E0000000606CFC6FFFFFFFFFFF8
:1021500007FF000700C0C0E6E6FFF7FFFBFFDFFF59
:102160000EDF000E0000004242E7E7FFDBFFFFFF4B
:102170007EFF007E006060F878FE7EFFE7FFFFFFD5
:1021800067FF00670000005050FFDFFFDFFFFBFF2D
:1021900073FF0073007070F8F8FECEFFCFFF7FFF73
:1021A00079FF0079008080C3C3F7F3FF7FFF1F7FB3
:1021B000071F0007007070FFFEFFDFFFCBFFFFFF70
:1021C0007EFF007E0000009E9EFFDFFFF3FF3FFFCB
:1021D0001E3F001E0308000E000D000F020A080E2D
:1021E0000A00181B00080A02000A021E1E00000A4C
:1021F00000080A0025203E3C1C0C0683C1E1F1F1D9
:10220000F1F1F1E1C3860E1E3C70F0F0F0F0F0E069
:102210000000000000000000000000FE83001E3FE0
:102220007FFFFFC18C06064E7C3983FF7E7C68C031
:10223000810347CF9C3C78C0800000000000000074
:10224000C06123060C1830612367EF4F0F1F3F71E9
:1022500020081C3EFCF9F0F0FCFEFCF8F0E143869F
:102260000C38F00000060C183060C080000000023E
:10227000060C1803063C78F2E7CF9FBFBF9FCF67DD
:1022800033190C0683E0387FC0803E40FFFFFFFF1C
:10229000FFFFFFFFFFFFFFFFFFFFFFFFFFFFFFFF4E
:1022A0007F3FFFFFFFFF7F3F9FC7FFFFFFFFFFFF56
:1022B000FFFFFFFFFFFFFFFFFFFFFFFFFFFFFFFF2E
:1022C00000FFFFFFFFFFFF0000FFFFFFFFFFFFFF1B
:1022D000FFFFFF7F7F7F7F7F7F6FE763613486F340
:1022E000FB791DFCFEFFFFFF3F8FFFFFFFFFFF3F5E
:1022F00080C71FFFFFFFFFFFFFFFFFFF1FC3F8FFA8
:10230000FFFFFF1F01C07C073FFFFFFFFF7F1F0391
:10231000F8FEF77359198BC2C6FCF03A8BE1F8FC52
:10232000FFFF3F8FE3F0FCF9FBF3E7E370707363AB
:10233000604FCF8F8F2FEFE70398FE7F3F9FCF63D4
:1023400030180E03000000818791FCFEF0F8F9F3CD
:10235000E7EECCDCD90F87E3F87E3F9FCFE7F3F8B9
:10236000FEFFCF8F0F1F1F3D3C3878787CEFE6F0E3
:10237000FCFFFFFF8338ECC4C6C2C3C180808080ED
:1023800000000000F8E38F3FFFFFFFFF7F7F3F0F5C
:1023900087C1CC0673F9FCFEFFFFFFFFFFFFFFFFC5
:1023A000FFFFFFFFFEFEFCFCFCFCFCFFFFFFFFFF4E
:1023B0007F7F3F9ECCE1F3FFFFFF7F3FBFBFBFBFEB
:1023C000BFBEFFFFFFFEF8F3E7CF9E3E7F3F1F0F2C
:1023D0000F07040133E7CF9F3F7FFFFFFFFFFFFFA2
:1023E000FFFFFFFF7F7F7F773783E3F3F3F9FCFF86
:1023F000FFFFFFFFFFFFFFE04C1D1D0D05010180EA
:10240000F9F3F7EFCFDFBFBF3F7F7EFCFCF8F8F8B2
:10241000F8F8FCFF7F1FC7D0DEDC9DB9BB3B7B79A2
:10242000FDFCFEFFFFFFFFFFFFFFFFFFFFFF7F3F02
:102430001F0F070381C0C06030386CC68381FFFF67
:10244000FFFFFFFFFFFFFFFFFFFFFFFFFFFFFFFF9C
:10245000FFFEFEFFFFFFFFFFFFFFFFFFFFFEFEFC93
:10246000FDF9F3F77F3F1F0F07030180C070381895
:102470000C07030100000000000001031E1800C04B
:1024800038C6E9ADE1D1DDDDE1FDFDFDFDFDFDFD80
:10249000FDFDFDFDF5BDF9C638C215020041060877
:1024A00008C84848D000F81FDF5F5F9F3FFF18C093
:1024B000504808080808666100082050885020032A
:1024C000813943988A888B88898A888A889B423A8E
:1024D00003401238100002000620C49434044CF863
:1024E000FFFF00F80C07FF7F0003CEF8080A0B0877
:1024F0000C073E2000000000000000F84C0434945B
:10250000C4E4E4E46424AC28282C242464E4E4EC4B
:10251000ECE4242CE8E8E82828E82828EC24242403
:10252000242C7CEC2424E4E42424E4642C2CE424F3
:1025300064EC000000000080C0474CD0803FFFFFEB
:1025400087B338B9D9410000183838B387FFFFFF87
:10255000F8E0838F83E0F8FF8080FF8181E3C1880A
:102560009CFFC0809F9F80C0FFCC88F88382C6FFFD
:10257000F0F8C09EBFBF3C3898CC073071C0C04354
:1025800072604C5E525E4C6072434040F1FF80804E
:102590009F9FFFC1C08E80A0FF8080F6F0F0FFF308
:1025A000F3FEFE8E82F0F8FFB0B6B68080FF000129
:1025B000010101000000030604040404003E7F4101
:1025C0001C3E7F7F7F7F6341633E00040C08080C44
:1025D0000C0808181018080808080808080808084F
:1025E00008080808080808080808080810081F094B
:1025F000091F001F0909170001011F01000A150822
:102600001F111111001F11111F001F11110E001FAA
:10261000151511000A39208E5951D78600001F0563
:1026200005C100DF5050DF005F51D11FC05F45C5BD
:102630000740C7441C070000002020F820200000AD
:102640000000B8A8A8E8000808F80800F888A8E87A
:10265000834644C5810000C244444700C74444C780
:1026600000C5454740074242C54004C74440C0003A
:1026700040C04000C00000C000C040404000C0005A
:10268000000000000000000000E3961475610000E7
:10269000870404F400F70202F700755555D70010BF
:1026A00010F710100711F11100F4274480F6010112
:1026B00006000705F5141017047444C07000F0906C
:1026C00090703865455D1800002041417D007D45D2
:1026D000457D0055557D017C24245D00447C4501E9
:1026E00001000100000001000101010100010101E0
:1026F00001000000010000010000011D08FF81BD74
:102700008989BD81BDADADA581BDA1AF81BD95D587
:10271000DDC1FFFFFFFFFFFFFFFFFF81BD95D5DD9F
:1027200081BDA1AF81BD9595BD81DD91B19DC1FFF9
:10273000FFFFFFFFFFFFFFFF81A5BDA581BD8991C1
:10274000BD81BD9595C581BDA5A5BD81FFFFFFFFDD
:10275000FFFFFFFFFF81BDA5A5A581BDA5A5BD818B
:10276000BD8991BD81BD95D5C1FFFFFFFFFFFFFF73
:10277000FFFF81ADADADB581BD959581A59989A5C9
:1027800081FFFFFFFFFFFFFFFFFFFFFFFFFFFF8155
:10279000BDA5A5BD81BD959581BD959581FFFFFF27
:1027A000FFFFFFFFFFFFFFFFFFFFFFFF81BDA5A5AD
:1027B000BD81BD8991BD81FFFFFFFFFFFFFFFFFFCF
:1027C000FFFFFFFFFFFFFFFFFF81BD8991BD81BDBF
:1027D000ADADA5819DB199B19D81FFFFFFFFFFFFC9
:1027E000FFFFFFFFFFFF81BDA5A5A581BDA5A5BD7D
:1027F00081BD8991BD8185BD85F1FFFFFFFFFFFF91
:10280000FFFFFF81BD8989BD81BDADADA581BDA1A2
:10281000AF81BDA1AF8FFFFFFFFFFFFFFFFFFFD520
:10282000F08D14A1C881CFD9F1AF20005810F0F875
:102830009C8E8783878E9CF8F00000FEFF030303C5
:102840000303070EFCF80000FEFF03030303030766
:102850000EFCF80000FFFF00000000000000FFFF7A
:102860000000FEFF8383838383C7EE7C380000F87B
:10287000FC0E07030303070EFCF800003F7FE0C0D7
:102880008080C0E07F3FFFFF01010101010101FFE6
:10289000FF0000FFFF0C0C0C0C1C3E77E3C1000096
:1028A0007FFFC0C0C0C0C0E0703F1F00001F3F706E
:1028B000E0C0C0C0E0703F1F00007FFFC1C1C1C1C8
:1028C000C1E3773E1C00001F3F70E0C0C0C0E07055
:1028D0003F1F000000000001FFFF01000000B01AD0
:1028E000921BA71AFA1A711AF82A0821A9205A214C
:1028F0006C20681D43205A1DED1E511D080B00025F
:102900000202000009040000010202000005240088
:10291000100105240101010424020605240600011A
:102920000705810310004009040100020A000000AD
:10293000070502024000000705830240000004036F
:10294000090412010002EF02014041233680000118
:102950000102030141726475696E6F204C4C4300A3
:1029600041726475696E6F204C656F6E6172646F41
:1029700000080800000000000000000021301124C1
:102980001FBECFEFDAE0DEBFCDBF11E0A0E0B1E0C7
:10299000EEEEF6E602C005900D92A434B107D9F729
:1029A00027E0A4E4B1E001C01D92A635B207E1F72B
:1029B00014E1CFEBD4E104C02197FE010E946F33F4
:1029C000CE3BD107C9F70E9446300C9475330C9466
:1029D00000008091BB010895E6EFF2E0A0E0B8E0CE
:1029E00000800EBC8111012C1197A0FDFDCF01923A
:1029F000B9F70DB408956F927F928F929F92AF9224
:102A0000BF92CF92DF92EF92FF920F931F93CF93DB
:102A1000DF93DC017A014115510509F49CC0FA01EC
:102A2000149131965491F2E0EF0EF11CC12FD0E0D9
:102A3000222309F1CC24C394D12C852F877011F463
:102A4000D12CC12CE52FE695E695E695EC0DFD2DF4
:102A5000F11DEC9FC001ED9F900DFC9F900D112486
:102A6000033011F4880F991F289FF001299FF00D62
:102A70001124EE0EFF1EFD01EC0FFD1F1E161F069A
:102A80000CF069C0A038B1050CF065C0CB01850F12
:102A9000911D181619060CF05EC0603471050CF01B
:102AA0005AC0E114F10409F456C0362F3770CB0137
:102AB00077FD079623E0959587952A95E1F7282FCE
:102AC00077FF04C0332311F02FEF280F66277727F5
:102AD0006A1B7B0BB7FD02C070E060E090E89A1BB8
:102AE000E038F1050CF4912F961BE22F022E000C1A
:102AF000FF0BDE2ED0942F3F0CF0D12C41E0852F20
:102B0000877009F440E0B52EB694B694B6944B0D98
:102B1000E40FF11D399714F048E0421BB42EBD18A4
:102B20002D0D40E82403F0011124AE0FBF1FA60FA6
:102B3000B71F1D9D600D711D1124A701460F571F62
:102B4000C32E032E000CDD08033009F4C7C090F437
:102B5000023009F474C0DF91CF911F910F91FF9063
:102B6000EF90DF90CF90BF90AF909F908F907F902D
:102B70006F9008950A3FA1F1B20E0B3F61F72B153C
:102B800051F3BD016A507D4F10E000E0091708F0D5
:102B90009FC0FA01E00FF11FE491F0E04F010C2C0F
:102BA00002C0880C991C0A94E2F727FD06C0FB01BD
:102BB0008081F82CF0948F218083332361F02730BB
:102BC00054F47B01F0E8EF0EF11CA92CA094F7015E
:102BD00080818A2180830F5F1F4F6F5F7F4FD6CF29
:102BE000B20E2B1509F4B7CFBD016A507D4F10E02E
:102BF00000E0091708F066C0FA01E00FF11FE49148
:102C0000F0E04F010C2C02C0880C991C0A94E2F7EA
:102C100027FD04C0FB01808188298083332351F084
:102C2000273044F47B01F0E8EF0EF11CF7018081BE
:102C3000892980830F5F1F4F6F5F7F4FDACF6FEF60
:102C400070E0032E02C0660F771F0A94E2F76095CA
:102C50007095972E8B2C820E281509F47CCF8D0150
:102C60000A501D4FF12CE12CE91630F5FA01EE0D5A
:102C7000FF1DE491F0E03F010C2C02C0660C771CB4
:102C80000A94E2F727FD05C0F80180818623862992
:102C90008083332359F027304CF45801F0E8AF0E0D
:102CA000B11CF5018081892187298083FFEFEF1A0C
:102CB000FF0A0F5F1F4FD8CF2F5F4C0F5D1FA0582B
:102CC000BF4FCACF2F5F4C0F5D1FA058BF4F89CF9A
:102CD0002F5F4C0F5D1FA058BF4F51CFE92EF12C35
:102CE000FA01E60FF71FAA50BD4F60E870E06E19B9
:102CF0007F09CE19DF098E01000F111F41E050E05E
:102D00007A01032E01C0EE0C0A94EAF7592F4B2DDD
:102D1000892E932ECF93DF93ED01EF96EF962296B7
:102D2000A590C590992059F0AE9C5001CE9C6001B1
:102D300027302CF4F880D094FD20FB28F992222330
:102D40003AF0FC90C094FC20FA28FD920C94A9164D
:102D500011965A9529F74A9551F0582D239511242B
:102D6000E00FF11DA60FB11DC60FD11DD9CFDF9108
:102D7000CF911124F0CE80389105A8F4603471050C
:102D800090F490E121E061FD24E060FD220F62FDFE
:102D90002295687F969FD0011124A80FAA50BD4F9D
:102DA0008C91822B8C9308951092ED011092EE017C
:102DB0001092EF011092F0011092EC011092EB01D1
:102DC000E2EEF2E0118285E0808711868AE083835B
:102DD00081E084871586168608950F9302E020E02F
:102DE00041E759E269E170E00E94FB140F910895F8
:102DF000FC018091EA01882311F13FB7F89482E049
:102E00008093E9002091F200822F90E018161906B5
:102E100014F481E090E0882339F0289844E6409348
:102E2000E9014091F1004083222339F02091F20022
:102E3000211103C02BE62093E8003FBF08958FEFD8
:102E40009FEF08952FB7F89483E08093E900909165
:102E5000E800892F807295FF04C09091F20080E411
:102E6000891B2FBF08958091E10181110DC082E07F
:102E70008093DD0184E08093DE011092E0011092E6
:102E8000DF0181E08093E1018DED91E00895CF9322
:102E9000DF931F92CDB7DEB76983DC01ED91FC9122
:102EA0000280F381E02D41E050E0BE016F5F7F4F73
:102EB00009950F90DF91CF91089583E08093E90009
:102EC0008091F200882319F08AE38093E800089546
:102ED0000E94221790E00895CF93DF931F92CDB701
:102EE000DEB7FC018485958597FD08C02FEF3FEF85
:102EF000358724870F90DF91CF910895CE010196F9
:102F00000E94F816019719F4898190E0F3CF8FEFB2
:102F10009FEFF0CF0F931F93CF93DF931F92CDB707
:102F2000DEB78C01FC018485958597FF0BC0CE012F
:102F300001960E94F816019771F4898190E0F801DA
:102F400095878487F801848595850F90DF91CF91CF
:102F50001F910F9108958FEF9FEFF1CFFC018485B2
:102F6000958597FD0BC09FB7F89482E08093E900A8
:102F70008091F2009FBF90E0019608959FB7F8946A
:102F800082E08093E9008091F2009FBF90E0089575
:102F90004091D7015091D8012091D5013091D601AF
:102FA00042175307B4F49091E8009570E1F39091C3
:102FB000E80092FD19C08093F1008091D7019091B3
:102FC000D80101968F739927892B19F48EEF80937E
:102FD000E8008091D7019091D80101969093D80193
:102FE0008093D70181E0089580E00895DF92EF9209
:102FF000FF920F931F93CF93DF93D82E8A01EB019B
:103000007B01E40EF51ECE15DF0559F0D7FE12C088
:10301000FE0184910E94C81721968111F4CF0FEF11
:103020001FEFC801DF91CF911F910F91FF90EF909B
:10303000DF9008958881EECF0F931F93CF93DF9396
:103040001F92CDB7DEB782E0898342E450E06CEF97
:1030500078E280E80E94F6170E943317DC0112968E
:103060000D911C910115110589F0D801ED91FC918C
:103070000280F381E02DBE016F5F7F4FC80109958B
:1030800097FD04C0F80100851185ECCF89810F9070
:10309000DF91CF911F910F910895615030F02091F1
:1030A000F100FC0120830196F8CF289884E68093F4
:1030B000E90108953FB7F8948091D1019091D20130
:1030C000A091D301B091D40126B5A89B05C02F3F94
:1030D00019F00196A11DB11D3FBFBA2FA92F982F3E
:1030E0008827BC01CD01620F711D811D911D42E039
:1030F000660F771F881F991F4A95D1F708958F9201
:103100009F92AF92BF92CF92DF92EF92FF926B01AC
:103110007C010E945A184B015C01C114D104E104E6
:10312000F104B9F00E945A18681979098A099B09B3
:10313000683E73408105910580F321E0C21AD108F1
:10314000E108F10888EE880E83E0981EA11CB11CEE
:10315000E4CFFF90EF90DF90CF90BF90AF909F9023
:103160008F9008958F929F92AF92BF92CF92DF92ED
:10317000EF92FF920F931F93CF93DF936C017B012C
:103180008A0180911401882309F45CC08091EA01CE
:10319000882309F457C08091DC0180FF05C080912D
:1031A000E00082608093E000E801B12C8AEFA82E55
:1031B00093E0892E2AE3922E209711F4BB20D9F1B7
:1031C0000E94221781110AC0AA94AA20D9F161E0B5
:1031D00070E080E090E00E947F18EECF8C171D0613
:1031E00011F00CF08C2F9FB7F8948092E900209199
:1031F000E80025FD02C09FBFDFCF282F30E0C21BB3
:10320000D30BF701815020F041914093F100FACFA8
:10321000E20EF31EBB2021F09092E800B12CEBCF20
:103220008091E80085FDE7CF9092E800BB24B3943D
:10323000209709F3F3CF5D9884E68093DB011016A5
:1032400011063CF081E090E0F6019383828310E068
:1032500000E0C801DF91CF911F910F91FF90EF9097
:10326000DF90CF90BF90AF909F908F900895209166
:10327000F502E091F302F091F402CF0102969093EF
:10328000F4028093F302222319F08591949108951A
:10329000808191810895CF92DF92EF92FF92CF9338
:1032A000DF930E943719811520E8920791F48091ED
:1032B00071008D7F8093710010929100469847981D
:1032C0001092BE01DF91CF91FF90EF90DF90CF90F1
:1032D000089521E02093BE01813020E8920751F447
:1032E0008091F1029091F2029093F4028093F302A4
:1032F0000E94371997FD05C02091BD01222309F4D2
:1033000054C02091BC01211150C021E02093BF0185
:10331000EC01DF77209709F04BC081E08093C0017A
:1033200046983FE9C32E3FE0D32EE12CF12CCAEFA3
:10333000D0E0E0915407F09155070995811103C041
:1033400081E08093C0018091BF01882329F08091A2
:10335000C001882309F43FC047980E94371900979D
:10336000F1F19C01DE010E943833DC01CB0129E040
:10337000B595A795979587952A95D1F710929000C6
:103380002AE020939100D0929900C09298008093F7
:10339000C1019093C201A093C301B093C401809175
:1033A00071008260809371008DCF1092BF01B0CF09
:1033B0009E0150E040E060E472E48FE090E00E9403
:1033C000E43269017A0181E0C81AD108E108F10804
:1033D0001092C001AECF4699BFCF479ABECF8FEFB4
:1033E0009FEFDC01CBCF9C01E1E7F0E090819D7F76
:1033F00090831092F502E6E4F7E0F093F402E09394
:10340000F302F093F202E093F1023183208384E12E
:1034100090E09383828380E090E8958384830C948A
:103420004B199091EB0291111BC09091EA02980FF9
:103430009093EA028F3F39F48CE38093EB0280E7AC
:1034400093E00E94F3198091EA02893020F088E02D
:103450008093EA020895811103C089E08093E1021C
:1034600008950F9303E00E94FB140F9108950F93AA
:103470000AEF0E94FB140F9108950F930BEF0E9427
:10348000FB140F910895BC0190E080E00C947F182C
:103490008FB18095807F669B88601C9B84600895B7
:1034A0001092BB013E983F9808953E9A3F9A81E062
:1034B0008093BB0108959091CA01982329F49091BB
:1034C000CB01982381E009F480E00895CF93C82FC1
:1034D0000E94481A982F9C2381E09C1380E0CF9192
:1034E000089520E042EF54E270E060E08EE190E069
:1034F0000E94371A20E048ED54E270E060E08CE56D
:1035000090E00E94371A20E045E156E261E270E067
:1035100080E390E00E94371A20E04EEF55E261E22E
:1035200070E086E190E00E94371A20E04CEE55E210
:103530006FE270E08BE190E00E94371A8CE00E940D
:103540005B1A882319F081E08093E10208958CE0F2
:103550000E945B1A882319F081E08093E1020895AC
:10356000CF93C091B901CF5FC093B90120E04CE780
:1035700054E264E170E081E390E00E94371AC937B9
:1035800028F01092B90181E08093E102CF91089573
:103590008091BA018F5F8093BA01873140F08091AA
:1035A000B9018F5F8093B90186E18093BA01809160
:1035B000B901863018F085E08093B901089520E0C4
:1035C0004AE852E270E060E090E080E00E94371A42
:1035D00020E044EF51E260E270E08EE390E00E9470
:1035E000371A20E042EF54E270E060E082E490E0BD
:1035F0000C94371AAF92BF92CF92DF92EF92FF9264
:103600000F931F93CF930E94DF1A0091BA0110E02D
:103610008FE790E0801B910B0E94ED1687E890E009
:10362000801B910B0E94ED168FE890E0801B910BA0
:103630000E94ED16C0910701C23021F482E690E0AD
:103640000E94ED1689E1C82ED12C92E0E92EF12CD2
:1036500080E890E09C01201B310B8901AC2EB12C3D
:1036600025E02E0DAE14BF0409F452C04BEF56E214
:10367000B601C8010E94371A3FEFE31AF30A89E046
:10368000C80ED11CE5E0EE16F10451F780E10E946E
:103690005B1A882339F0C43028F4CF5FC093070148
:1036A0001092B90180E80E945B1A882349F080914A
:1036B0000701833028F08150809307011092B901EF
:1036C00084E00E945B1A8823B1F01092B901109235
:1036D000BA0180910701865F8093E1028093060121
:1036E000CF911F910F91FF90EF90DF90CF90BF90FF
:1036F000AF900C94C81A88E00E945B1A882381F36B
:103700001092B9011092BA0181E08093E102E8CFF2
:103710008091B9014BEF56E2B601F801E81BF109BF
:10372000CF01A8CFAF92BF92CF92DF92EF92FF92DC
:103730000F931F93CF930E94DF1A0091BA0110E0FC
:103740008FE790E0801B910B0E94ED1687E890E0D8
:10375000801B910B0E94ED168FE890E0801B910B6F
:103760000E94ED16C0910701C23021F482E690E07C
:103770000E94ED1689E1C82ED12C92E0E92EF12CA1
:1037800080E890E09C01201B310B8901AC2EB12C0C
:103790002EEF2E0DAE14BF0409F445C04BEF56E2D8
:1037A000B601C8010E94371A3FEFE31AF30A89E015
:1037B000C80ED11CE6E0EE16F10451F780E10E943C
:1037C0005B1A882339F0C53028F4CF5FC093070116
:1037D0001092B90180E80E945B1A882349F0809119
:1037E0000701833028F08150809307011092B901BE
:1037F0008CE00E945B1A882359F01092B901109254
:10380000BA01809107018093E10282E08093070171
:10381000CF911F910F91FF90EF90DF90CF90BF90CD
:10382000AF900C94C81A8091B9014BEF56E2B601E3
:10383000F801E81BF109CF01B5CFFC0153E0F69583
:10384000E7955A95E1F79B01287F3327E20FF31F95
:10385000F695E7952091AC013091AD0121503109E9
:10386000B4E0220F331FBA95E1F7E20FF31FE057E0
:10387000F14EE491F0E0AC01487055272FEF30E0B5
:1038800083FF02C02FE030E0E223F32324E0452B46
:1038900009F020E033E0660F771F3A95E1F768738F
:1038A000772787709927862B972B02C0F595E79588
:1038B0002A95E2F746E0EE0FFF1F4A95E1F7E80F81
:1038C000F91FE057F54E849108952F923F924F9241
:1038D0005F926F927F928F929F92AF92BF92CF92A0
:1038E000DF92EF92FF920F931F93CF93DF93CDB7A9
:1038F000DEB72B970FB6F894DEBF0FBECDBF4C01DD
:103900007B01542E3901FC010190F081E02DFA83F6
:10391000E983CF018770992731E0892B09F430E0E2
:10392000F701808191818770992721E0892B09F423
:1039300020E089819A8197FF03C007969A83898343
:10394000E981FA8163E0F595E7956A95E1F7FB87F0
:10395000EA875F0173E0AA0CBB1C7A95E1F7832F1D
:1039600090E09A838983E22FF0E0F887EF83F401F7
:103970008081918197FD079653E0959587955A959B
:10398000E1F7029629813A81820F931FEA85FB8530
:10399000E817F9070CF06CC0F7010081118117FFDF
:1039A00002C0095F1F4F33E0159507953A95E1F77F
:1039B0004A84FB85F987150120E1221A31088A859E
:1039C0009B8501969B878A8798E0A90EB11CC80148
:1039D00043E0880F991F4A95E1F7D12CC12CFC01D7
:1039E0007097FC83EB839C01285F3F4F3E832D83C0
:1039F000F7018081918197FD079623E09595879542
:103A00002A95E1F702962F813885820F931F0817B8
:103A100019070CF0ACCFB801842D99850E941D1CAC
:103A20008B3058F0F3018081552099F087FF0BC04F
:103A3000F401B182A082F3011082F8E0CF0ED11C14
:103A40000F5F1F4FD5CF8823B1F3F401318220825D
:103A5000F2CF87FF08C08D819E818C0D9D1DF701DF
:103A600091838083E8CF882331F38B819C81F5CFCC
:103A70002B960FB6F894DEBF0FBECDBFDF91CF916E
:103A80001F910F91FF90EF90DF90CF90BF90AF907C
:103A90009F908F907F906F905F904F903F902F906E
:103AA00008951092AF011092AE0186E08093E1027A
:103AB0000C94D4161092AD011092AC011092AF018B
:103AC0001092AE010E94D41686E08093E102089520
:103AD00020E046E959E170E060E08EE190E00E946C
:103AE000371A20E04CE759E170E060E08CE590E0A7
:103AF0000E94371A20E046E059E168E270E085E272
:103B000090E00E94371A8CE00E945B1A882361F0D3
:103B100088E08093E10220E040E358E160E270E059
:103B200086E190E00C94371A08958091C601909137
:103B3000C7016EE170E00E944733892B31F4809118
:103B4000AA0191E089278093AA018CE00E945B1A68
:103B5000882339F081E08093E1021092AB0110924A
:103B6000AA0108951092A90181E08093A801809193
:103B7000A6019091A701853191055CF4049690937C
:103B8000A7018093A6018091A50184508093A5018F
:103B900008958091AB018F5F8093AB010895809170
:103BA000C6019091C70183709927892B29F48091D0
:103BB000B9018F5F8093B9018091B901893038F0E4
:103BC0008091AB018F5F8093AB011092B901089592
:103BD0008091B7018823B9F081508093B70180911B
:103BE000ED019091EE01A091EF01B091F0010596E9
:103BF000A11DB11D8093ED019093EE01A093EF0103
:103C0000B093F00108958091AE019091AF01813899
:103C1000910524F0809106018E3031F48091AB0142
:103C20008F5F8093AB0108958BE08093E102109247
:103C3000AB0108958EEC9FEF9093A7018093A601AE
:103C40008AE98093A5018091AE019091AF0101971F
:103C500021F0809106018D3059F41092A90181E084
:103C60008093A8011092AA0184E08093AB0108958B
:103C700081E08093A9011092A8011092AA0180917D
:103C8000AB018F5FF2CF90910601E091AE019E30C3
:103C900011F4E091AC01E150FF0BEE0FFF1FEE0FAE
:103CA000FF1FE80FF11DE45FFC4E849128E0829F26
:103CB000C001112408950F93DC0117968C9117977A
:103CC000882309F1ED91FC911197CB01820F911D91
:103CD00027FD9A95E817F907B4F43F96E617F7071A
:103CE00094F012968D919C919A01200F311D07FD41
:103CF0003A95821793073CF49C01215F3F4F81E086
:103D0000241735070CF480E00F9108954F925F92CD
:103D10006F927F928F929F92AF92BF92CF92DF92DB
:103D2000EF92FF920F931F93CF93DF937C016B0170
:103D3000142F5901C1EFD1E081EE482E82E0582EB8
:103D4000F60180809180F7016080718000E120E1C0
:103D5000A401B301CE010E945B1E8823B1F08881CB
:103D600099816816790629F42A813B818216930687
:103D700061F0F5012081112309F11216DCF440975E
:103D8000F70191838083F50110822A964C165D0617
:103D9000B9F6DF91CF911F910F91FF90EF90DF90D7
:103DA000CF90BF90AF909F908F907F906F905F90DB
:103DB0004F900895222339F34096E2CF12162CF447
:103DC0008A819B814097F601DCCF2223E1F28A8130
:103DD0009B814096F8CF0C94CE32CF9380E590E053
:103DE0000E94EB1EC82F8091C501C81348C088E50A
:103DF00090E00E94EB1EC81342C00E94D41681E5D9
:103E000090E00E94CE328093AE0182E590E00E9465
:103E1000CE328093AF018091AE019091AF010197B6
:103E20009093AF018093AE0160E270E00E945B333B
:103E30009093AD018093AC0183E590E00E94CE3277
:103E40008093ED0184E590E00E94CE328093EE01F4
:103E500085E590E00E94CE328093EF0186E590E008
:103E60000E94CE328093F00187E590E00E94CE322E
:103E70008093EA0286E08093E102CF9108958CE07E
:103E8000FACF2F923F924F925F926F927F928F92D2
:103E90009F92AF92BF92CF92DF92EF92FF920F93D9
:103EA0001F93CF93DF93CDB7DEB72A970FB6F89461
:103EB000DEBF0FBECDBFC82EE62E742E8E010F5F63
:103EC0001F4F21303105A9F02230310509F47AC0A5
:103ED0008091B7014AE0B80190E00E946832F80191
:103EE00001900020E9F73197E01BF10BAE2E83E043
:103EF00015C06091ED017091EE018091EF019091FC
:103F0000F0012AE0A8010E947332F801019000201C
:103F1000E9F73197E01BF10BAE2E86E0F82EFE1A82
:103F2000B12CD12C4F2C0F2C000C55088E2C912C21
:103F300077E0672EEAE03E2E8B2D90E08415950504
:103F40000CF447C02F2D37E02302C00CD11C1124E4
:103F5000460193E02902801891081124240136E0DB
:103F60002302400C511C1124612C0A2C000CBB08AC
:103F7000F12C57E0352E6AE0262E862D90E08A152A
:103F80009B050CF067C0F801E80FF91F2081213371
:103F90000CF449C020532A3008F045C031E07316B4
:103FA00009F443C032E0731609F44BC0880F991F1F
:103FB000880F991F44ED51E2B701880D991D0E94A9
:103FC000371A3DC04AE0B8018091AE019091AF012F
:103FD00084CF21E0721681F032E07316D1F0880FA1
:103FE000991F880F991F20E044ED51E2B4018C0D18
:103FF0009D1D0E94371A0BC020E042E351E2B4013C
:10400000C601B69C800D911D11240E94311AB394F3
:1040100093CF20E040E950E2B401C601B39C800D8B
:10402000911D1124E6CF20E0B9CF42E351E2B70160
:10403000C601639C800D911D11240E94311A639466
:104040009CCF40E950E2B701C201629C800D911DF6
:104050001124B5CF2A960FB6F894DEBF0FBECDBFA0
:10406000DF91CF911F910F91FF90EF90DF90CF9054
:10407000BF90AF909F908F907F906F905F904F9088
:104080003F902F900895E091AB01F0E0EE0FFF1FFD
:10409000EA5DF74E85919491FC01099520E04CE78B
:1040A00057E168E070E086E190E00E94371A21E075
:1040B00030E042E060E284E20E94411F8091AA0168
:1040C000882349F020E044E457E168E370E085E2AA
:1040D00090E00C94371A0895E091AB01F0E0EE0FF8
:1040E000FF1FEA5DF74E85919491FC01099580913F
:1040F000060120E08E3029F544E157E163E070E0ED
:1041000089E290E00E94371A20E040E358E16FE036
:1041100070E08BE090E00E94371A21E030E042E04E
:1041200062E283E20E94411F8091AA01882381F00C
:1041300020E044E457E165E370E085E290E00C9410
:10414000371A48EE56E163E070E08BE290E0DACF98
:104150000895E091AB01F0E0EE0FFF1FE652F94E3B
:1041600085919491FC0109958091A9018823B9F06A
:1041700020E046EB56E160E170E080E290E00E94D2
:10418000371A30E020E041E060E18EE40E94411FF8
:1041900021E030E042E064E284E20E94411F80912D
:1041A000A8018823A1F120E04CE456E168E170E029
:1041B0008091A6019091A7010E94371A8091AA01CF
:1041C0008823B1F08091060120E08E30C9F444E1EB
:1041D00057E168E070E089E290E00E94371A20E041
:1041E00044E457E160E370E085E290E00E94371A12
:1041F00022E030E042E068E18091A5010C94411F8B
:1042000048EE56E168E070E08BE290E0E6CF08957A
:10421000109290011092950110929A0110929F01B4
:104220001092A4011092770110927F0110928701E1
:10423000E1EFF1E017823A9682E0E13EF807D1F72C
:104240008091AC019091AD019C012F5F3F4F309365
:10425000AD012093AC01209106012E30E1F060E227
:1042600070E00E945B3301969093AD018093AC01A6
:104270008091AE019091AF0101969093AF01809330
:10428000AE0110928B011092AB011092B90187E040
:104290008093E10208950E94103220E230E040E075
:1042A00050E00E94E4326F5F7F4F7093AD016093E6
:1042B000AC01DECF2F923F924F925F926F927F922E
:1042C0008F929F92AF92BF92CF92DF92EF92FF9226
:1042D0000F931F93CF93DF93CDB7DEB764970FB6DD
:1042E000F894DEBF0FBECDBF809106018E3009F479
:1042F000D3C18CE3682F660F680F70E08091C60110
:104300009091C7010E944733892B09F06AC00E942F
:10431000103220ED31E040E050E00E94E4326B01C9
:104320007C0120E1C20ED11CE11CF11C0E94103264
:1043300020ED30E040E050E00E94E4324B015C01AF
:1043400030E1830E911CA11CB11C8091E60290917A
:10435000E702AC0140585109C416D506A4F08058B4
:104360009F4F8C159D057CF08091E8029091E902A9
:10437000AC0140545109841695062CF0805C9F4F87
:104380008815990574F5E1EFF1E010E000E0878110
:10439000811184C10E94103223E030E040E050E0FF
:1043A0000E94E4328AE0809FF001819FF00D112489
:1043B000EF50FE4F148281E087831582D182C08244
:1043C00093828282618782E0611101C083E08683EB
:1043D0008AE0809FF001819FF00D1124EF50FE4F85
:1043E00010868CE00E94661A882319F08AE0809378
:1043F000E1028091F002843218F081E08093EF02B4
:104400001A8219821091E30280E20E94661AE82E55
:1044100080E40E94661A782E80E80E94661A082FAF
:1044200080E10E94661AF82E88E00E94661A682EC3
:1044300084E00E94661A582E802F011106C08F2D2D
:10444000F11003C0872DE1108E2D8093E202809140
:10445000ED02882319F081508093ED0201110C9434
:10446000B62AF1100C94B62A8091E502882319F03F
:1044700081508093E5028FEFE11003C0772011F0A7
:1044800081E08A832A818091E6029091E702820F7F
:10449000911D27FD9A959093E7028093E6029E0175
:1044A0002E5F3F4F41E068EE72E086EE92E00E94A0
:1044B000861E9E012E5F3F4F41E068EE72E086EE61
:1044C00092E00E94651C8FEF011103C0FF2011F0E4
:1044D00081E0898329818091E8029091E902820F2D
:1044E000911D27FD9A959093E9028093E8029E0121
:1044F0002F5F3F4F40E068EE72E086EE92E00E9450
:10450000861E9E012F5F3F4F40E068EE72E086EE10
:1045100092E00E94651C8090E8029090E902A090D1
:10452000E602B090E7028CE8C82E81E0D82EA50103
:10453000405F5F4F5C834B83140150E1250E311CBB
:1045400044244394F6018481882379F18081918108
:104550002B813C818217930744F50F968A159B05A2
:1045600024F18281938182159305FCF40F968815BE
:104570009905DCF0148284E992E00E94F31980919D
:10458000EB019091EC018C509E4F9093EC01809345
:10459000EB01ECE8F1E08481811107C0359631E050
:1045A000E53AF307C1F74092B40145E0C40ED11CCF
:1045B00055EAC51651E0D50629F68090E60290909E
:1045C000E702A090E802B090E9028091B40188234C
:1045D000F9F08091B0019091B1019401215F3F4FBA
:1045E00028173907ACF00F96881599058CF0809143
:1045F000B2019091B3019501215F3F4F2817390710
:104600003CF00F968A159B051CF086E08093E10232
:1046100083E791E09C838B836C01F4013F96FE83DA
:10462000ED831501FFE02F0E311CF60124812223BA
:10463000F9F0808191814D815E8148175907C4F05E
:104640000F9688159905A4F0828193812816390662
:104650007CF00F968A159B055CF0223039F584E9D1
:1046600092E00E94F31982E00E94111AF60114826E
:10467000F8E0CF0ED11C2BE8C21621E0D206A9F635
:10468000611031C0EE2009F113E001112CC012E0DD
:10469000FF2049F111E027C08FE02CCE0F5F1F4FA4
:1046A0003A960831110509F072CE9BCE80E793E06F
:1046B0000E94F3198091EB019091EC018C599F4F6E
:1046C0009093EC018093EB01D1CF772041F015E07E
:1046D000011109C016E0FF2031F017E004C00111FC
:1046E00029C0F11029C01093E302552011F0662073
:1046F00009F010FF1093EC028091C6019091C70160
:1047000083709927892B51F58091F002823018F03F
:1047100081508093F00288E00E94661A882371F02D
:104720008091EF02811114C08091F0028E5F80931E
:10473000F00209C014E0D7CF10E0D5CF84E00E948A
:10474000661A8111EDCF8091EF02882309F419C711
:104750008091EE0291E089278093EE025520D1F0FE
:104760008091EF0281111CC08091E502811114C07B
:10477000E5E4F1E050E040E08681882309F44BC194
:104780004F5F5F4F379646305105B1F78AE080930F
:10479000E50202C06110E4CF8091EF02882349F066
:1047A0008091F002823028F41092EF0281E0809331
:1047B000EE028091C6019091C70166E070E00E9410
:1047C0004733892B49F48091E202882329F08091B4
:1047D000E4028F5F8093E4028091E402843010F061
:1047E0001092E4028091EB019091EC0118161906E9
:1047F000C4F405979093EC018093EB018091ED0157
:104800009091EE01A091EF01B091F0010596A11DEC
:10481000B11D8093ED019093EE01A093EF01B09351
:10482000F0018091EB02882319F081508093EB0214
:10483000E091E602F091E702F8972091E8023091CA
:10484000E9022C5131098091EC0290E0DC01A75E75
:10485000BE4F4C9164E04602A00111244E0F5F1F31
:10486000FC013696E770FF27E75EFE4F608184E02B
:104870006802B0011124620F731FE0916F01F09183
:104880007001CF011FEF4E175F073CF011E0E417F6
:10489000F5070CF010E0CA01AF01841B950B9C01D9
:1048A000220F331F280F391F37FF02C0215F3F4FF0
:1048B000A4E035952795AA95E1F72F5F3F4F1203A6
:1048C000C001139F900D11248E0F9F1F4091710105
:1048D000509172019A011FEF641775073CF011E0C7
:1048E000461757070CF010E09B01BA0197FF02C072
:1048F00090E080E08138E1E09E0714F080E891E0EC
:104900009093700180936F01261B370BC901880FAC
:10491000991F820F931F97FD0F9624E09595879519
:104920002A95E1F79C012F5F3F4F1203C001139FAF
:10493000900D1124480F591F57FF02C050E040E06E
:10494000413C510514F040EC50E05093720140930B
:10495000710125E431E03E832D8319018AE0782E30
:1049600095E0692E55245394F1018681882309F43A
:10497000E8C08481C080D180C80ED11C87FDDA9444
:10498000D182C0828581A280B380A80EB11C87FD30
:10499000BA94B382A28201EF802E01E0902EF12C16
:1049A000E12C02E022E0A501B601C4010E945B1ED9
:1049B000882309F41AC1F10116827E9C80017F9C34
:1049C000100D11240F501E4FF801868181508683EF
:1049D000811105C18CED90E00E94F319F801608609
:1049E00017828091EB019091EC018C599F4F90932D
:1049F000EC018093EB01809177018823D1F18091C4
:104A00007F01882309F4E5C08091870181115EC090
:104A1000E2E0F0E030C02091E8023091E9028091BC
:104A2000E30290E0FC013696E770FF27E75EFE4F59
:104A30006081875E9E4FFC01708187E0849FF0015A
:104A4000859FF00D1124EB5BFE4F8091E602909163
:104A5000E702099691838083255F3F4F338322834A
:104A60007483658381E0868388EB91E00E94F3196B
:104A70008DCEF0E0E0E07E9CD0017F9CB00D112453
:104A8000AF50BE4F12968D919C9113972D913C91F2
:104A900013E0EE0FFF1F1A95E1F7ED58FE4F578216
:104AA00016822C5F3F4F3183208304969383828349
:104AB00080918B01A82FB0E0AF5DBE4F9C91948395
:104AC0008F5F8A3008F088C080938B01F10162818A
:104AD000738177FF02C0695F7F4FB3E0759567957B
:104AE000BA95E1F7F1018081918197FD0796A3E0E6
:104AF00095958795AA95E1F70E941D1C8B3010F0C3
:104B0000F1011682F1016081718120916F01309174
:104B10007001621773079CF042815381809171018B
:104B2000909172014817590754F020583F4F2617AB
:104B300037072CF0805C9F4F8417950714F4F10120
:104B40001682F7E02F0E311C2FE6221621E03206E6
:104B500009F00ACF71EF472E71E0572EE1EEAE2E2D
:104B6000E2E0BE2E3201F3E08F2E912CF30187811B
:104B7000882309F4DCC08091C6019091C7011A8294
:104B80001982B4010E944733892B09F0CBC0808180
:104B900091812091E6023091E702821793078CF50C
:104BA00021E02A83F301228133814091E802509170
:104BB000E9022417350754F541E049838115F2E0F5
:104BC0009F0720F42F3F310531F128F1F3011782BF
:104BD000AEC0E1E0F0E04FCF10928B0177CF60865E
:104BE00080E892E00E94F31971CFFFEFEF1AFF0AFD
:104BF0002AE0820E911C38E1E316F10409F0D1CECF
:104C000065CF2817390774F62FEFCBCF421753071C
:104C1000ACF64FEFD2CF2A8127FF22C1F3011582D4
:104C2000820F911D27FD9A95F301819391936F0156
:104C30009E012E5F3F4F41E0BF01C3010E94861ECF
:104C4000E090E602F090E7024091E8025091E9021C
:104C500000E120E1B701C3010E945B1E882371F0CF
:104C60008A8118160CF003C1F0E1EF1AF108F30184
:104C7000F182E0828FEF0E94111A1A829E012E5F4C
:104C80003F4F41E0B601C3010E94651C2981F30139
:104C900082819381820F911D27FD9A959383828350
:104CA0009E012F5F3F4F40E0B601C3010E94861E68
:104CB000E090E802F090E9026091E6027091E7026C
:104CC00000E120E1A701C3010E945B1E882371F06F
:104CD000898118160CF0D2C0F0E1EF1AF108F30147
:104CE000F382E2828FEF0E94111A19829E012F5FD8
:104CF0003F4F40E0B601C3010E94651C8A818111CB
:104D000004C08981882309F4C0C08091C60180FD58
:104D100004C0F30184818F5F8483F3018481883030
:104D200008F01482F3018681882309F450CFFAE059
:104D30006F0E711CA614B70409F018CF8091C6013C
:104D40009091C7016AE070E00E944733892B29F4F3
:104D5000809144018F5F80934401809144018430AD
:104D600010F010924401C0907101D0907201A09097
:104D70006F01B0907001950153E0369527955A95D3
:104D8000E1F7388B2F87450137E083229924A6016C
:104D900063E0569547956A95E1F75A8B498BC601B2
:104DA0008770992798878F838114910409F46FC0C5
:104DB000E1E1F0E0FA87E9874F815885452B09F456
:104DC0006BC089E090E09C878B87F12C8F2D90E061
:104DD00029853A85821793070CF065C09C0143E052
:104DE000220F331F4A95E1F7A901481959095C8B35
:104DF0004B8BE12CEF85F889E80FF91FFE87ED87D3
:104E00000E2D10E02B853C85021713070CF049C0CE
:104E100069897A89600F711F8D859E850E941D1C8E
:104E2000282F8091AC019091AD01019763E070E073
:104E30000E945B3338E2389F200D1124B80133E023
:104E4000660F771F3A95E1F74F815885641B750B04
:104E50004CEA50E08B899C890E94371AE394D0CFAA
:104E6000222309F4DDCE31E0F3013583D9CE882346
:104E700009F400CFF0E1EF0EF11CF9CE882309F41C
:104E800031CFF0E1EF0EF11C2ACFF3014ACF20E140
:104E900030E03A87298790CFE8E0F0E0FC87EB87A5
:104EA00094CFF39493CF8091B401882309F4F1C196
:104EB0008091B701811107C08091B801882319F052
:104EC00081508093B8018091B801811106C08FEFA5
:104ED0000E94111A8FEF8093B8018091C6019091C2
:104EE000C7016AE070E00E944733892B61F480912A
:104EF000B7019091B6019F5F9093B601882351F05E
:104F000081508093B7018091B701813019F48FEF00
:104F10000E94111A8091B601843010F01092B601EF
:104F2000D12CC12CB12CA12CE090B201F090B30196
:104F30008091710190917201E81AF90AEA0CFB1C48
:104F40000091B0011091B10180916F0190917001B9
:104F5000081B190B0C0D1D1D20E040EF54E0B7019C
:104F6000C8010E943D1A2091B501220F220F8091A5
:104F7000B601280F4EE654E0B701C8010E94371A67
:104F800058E0A50EB11C60E1A616B10469F688E0F0
:104F9000C80ED11C90E1C916D10421F623E0E22EFF
:104FA00006E010E0CC24C394F090C601D090C70175
:104FB0008F2D9D2DB8010E944733892B41F4EB8141
:104FC000FC8186818F5F868385818F5F8583F0FC7E
:104FD00008C0EB81FC8186818A3118F087818C259D
:104FE0008783EB81FC8186818F3108F01482EB810D
:104FF000FC818581863008F01582EB81FC819481EB
:105000009923F1F087818823D9F025812650892FB3
:10501000880F890F880F280F628173818091710139
:1050200090917201681B790B80819181E0916F01F1
:10503000F09170014EE955E08E1B9F0B0E94311AD2
:10504000EA942B813C81285F3F4F3C832B83E11006
:10505000ABCF8F2D9D2D6EE170E00E944733892BE1
:1050600031F48091000191E089278093000191E063
:10507000E92E91E0F92E0CE811E0F80184818823F3
:1050800009F43FC0F7019080A0907101B0907201C7
:10509000C0906F01D0907001F801628173816A192C
:1050A0007B0980819181292D44E559E08C199D0966
:1050B0000E943D1A990C990C20914401290DF80188
:1050C000628173816A197B098081918142ED56E08A
:1050D0008C199D090E94371A80910001882389F05C
:1050E000F80162817381695071096A197B098081B5
:1050F0009181409620E040E656E08C199D090E947F
:10510000311A0B5F1F4FFFEFEF1AFF0A21E0053A3C
:10511000120709F0B2CFF20180859781992309F433
:10512000E4C0882311F081508087F201808583706C
:10513000823040F50081118180916F019091700162
:10514000081B190BE280F38080917101909172012C
:10515000E81AF90A8185882309F4B7C025814CEB48
:105160005CE0B701C8010E943D1AF2012581220FBF
:10517000220F220F8481280F4AEB5AE0B701C801A1
:105180000E94371A9AE0490E511C6414750419F6EE
:10519000ED81FE818681882309F1808191812091B2
:1051A0006F0130917001821B930B9C0121503109DA
:1051B0002F37310598F4628173812091710130910C
:1051C0007201621B730B9B01215031092F33310592
:1051D00028F420E04EEF5CE00E94371A2D813E81DA
:1051E000295F3F4F3E832D832216330689F6809137
:1051F000EB028770843088F5E0907101F0907201C5
:1052000000916F01109170016091E8027091E902C4
:105210006E197F098091E6029091E7022091E302E6
:1052200044E051E1801B910B0E943D1A2091E30262
:10523000220F220F8091E402280F6091E802709102
:10524000E9026E197F098091E6029091E70242E03F
:105250005DE0801B910B0E94371A21E030E041E0B5
:1052600060E086E50E94411F10E00AE08091EA02BA
:10527000181708F006C1812F869520E046E052E11C
:1052800070E060E0809FC00111240E94311A1F5F0E
:10529000EDCFE090B201F090B301EC18FD08009161
:1052A000B0011091B1010A191B0920E04CE755E04B
:1052B000B701C8010E943D1A2091B5014AEF54E0A0
:1052C000B701C8010E94371A69CE258148E75AE024
:1052D000B701C8010E943D1AF20124812170858125
:1052E000880F280F46EF59E049CF882309F44ACFA9
:1052F00081508087C280D3802091710130917201EA
:10530000C21AD30A4601F8E08F0E911CF201E08028
:10531000F18020916F0130917001E21AF30A570178
:10532000F8E0AF0EB11C06E010E0081B1109000FF9
:1053300010E021E030E0201B310B3C832B8390E018
:1053400080E0801B910BAC01440F551F5A8B498B99
:10535000B401600F711FC5010E94BB16B401601B30
:10536000710BC5010E94BB16B401C501800F911FCE
:105370000E94BB16B401C501801B910B0E94BB1695
:10538000C70109969A878987F7013796F887EF83CF
:10539000188A1F8621E030E03C8B2B8BCE18DF086B
:1053A0004F855889401751070CF0ECCE8B819C81BA
:1053B00097FD0BC001501109E989FA893296FA8BE1
:1053C000E98B8E0F9F1F9C838B832F8538892F5FDE
:1053D0003F4F388B2F874B895C894E5F5F4F5C8BCB
:1053E0004B8B8B819C81840F951F9C838B837401D5
:1053F000E00EF11EB70189859A850E94BB16B701A0
:105400008F8198850E94BB167401E01AF10AB701DA
:1054100089859A850E94BB16B7018F8198850E9465
:10542000BB16E984FA84EC0CFD1CB701F501E00F12
:10543000F11FFC87EB87CF010E94BB16B7017501F6
:10544000E01AF10AC7010E94BB162F8138852C0D86
:105450003D1D3E872D87B9018B859C850E94BB161B
:105460006D857E85C7010E94BB1649855A854F5FB1
:105470005F4F5A8749878F819885019798878F83D7
:105480008FCF10E000E0F12C8091EA028695F816AB
:1054900060F421E046E052E170E060E0C8010E9463
:1054A000311AF394065F1F4FEFCF10E009E0ECE8EC
:1054B000F1E080E0948191118F5F359631E0E53A1B
:1054C000F307C1F7181768F4109FC001112422E0F8
:1054D00046E852E170E060E088960E94311A1F5F52
:1054E000E6CF81112FC080910001882391F023E045
:1054F00046E852E170E060E08DE290E00E94311AEF
:1055000024E046E852E170E060E086E390E00E942B
:10551000311A25E046E852E170E060E081E490E075
:105520000E94311A26E046E852E170E060E08AE429
:1055300090E00E94311A30E020E040E061E084E435
:105540000E94411F8091EE02882301F110E08091BA
:10555000F0021817D8F420E046E053E167E070E06D
:10556000812F90E00E94311A1F5FF1CFE11004C03B
:10557000772011F40C94342284E08093ED020C9493
:1055800034225110F1C86110EFC806C964960FB6F5
:10559000F894DEBF0FBECDBFDF91CF911F910F9169
:1055A000FF90EF90DF90CF90BF90AF909F908F9043
:1055B0007F906F905F904F903F902F900895FF9253
:1055C0000F931F93CF93DF93EC01F62E088119817F
:1055D000C8010E94CE32F81621F06F2DC8010E943A
:1055E000D632CE01DF91CF911F910F91FF90089598
:1055F000EF92FF920F931F93CF93DF9300D0CDB71D
:10560000DEB70E94DF1A0091BA0110E08FE790E048
:10561000801B910B0E94ED1687E890E0801B910B98
:105620000E94ED168FE890E0801B910B0E94ED1612
:1056300080E10E945B1A882321F00E94551A109283
:10564000B90180E80E945B1A882321F00E94501A59
:105650001092B9018CE00E945B1A882389F0609156
:10566000BB011092B9011092BA0182E090E09A83D6
:105670008983CE0101960E94DF2A81E08093E102B6
:105680008091BA0100E810E0081B110924E04BEFFB
:1056900056E269E170E0C8010E94371A8091B901B1
:1056A0007801E81AF1088091BB018823D9F025E040
:1056B0004BEF56E262E270E0C8010E94371A26E022
:1056C0004BEF56E26BE270E0C7010E94371A0E946E
:1056D000C81A0F900F90DF91CF911F910F91FF90FB
:1056E000EF90089526E04BEF56E26BE270E0C801C0
:1056F0000E94371A25E04BEF56E262E270E0E4CFF9
:105700008F929F92AF92BF92EF92FF920F931F934F
:10571000CF93DF9300D0CDB7DEB78091C6019091D3
:10572000C7016EE170E00E944733892B31F480910C
:10573000AA0191E089278093AA018CE00E945B1A5C
:10574000882309F4F2C088E08093E1021092AB0153
:105750001092A9011092A8011092AA018EEC9FEF5D
:105760009093A7018093A6018AE98093A50180E028
:105770000E94431E9093E7028093E60281E00E941C
:10578000431E9093E9028093E80283E00E94431E47
:105790008C0182E00E94431E9093B1018093B0017E
:1057A0001093B3010093B2010115110579F0803F08
:1057B00021E0920749F0003F110509F4B3C0892B9D
:1057C00029F403E010E002C001E010E00093B5010D
:1057D0001092B4018FEF8093B7018093B80101E07C
:1057E00011E025E0822E912CA12CB12C0E941032C8
:1057F000F801F1908F01A50194010E94E432E62F97
:10580000F0E0EF5FFE4F8081D80111978C93F0821A
:10581000F1E006301F0751F78091060125E08E3038
:1058200009F451C06091C50180E590E00E94D63234
:1058300081E590E09A8389836091AE01CE01019663
:105840000E94DF2A82E590E09A8389836091AF010C
:10585000CE0101960E94DF2A9DEEE92E91E0F92EFD
:1058600003E510E01A830983F70161917F01CE01FE
:1058700001960E94DF2A0F5F1F4F0735110591F730
:105880001A8309836091EA02CE0101960E94DF2A01
:105890006091C50188E590E00E94D6328091AE010A
:1058A0009091AF0160E870E00E945B339C01215051
:1058B000310937FF02C0215E3F4F85E035952795BE
:1058C0008A95E1F72E5F4091AC015091AD014150B6
:1058D00051093AE0349FC001359F900D1124845F37
:1058E0009A4EACE8B1E030E061E02317F1F0FC0142
:1058F0004491F8E04F9FA001112411965C934E93C0
:10590000FC013196E49148E0E49FF00111241396E4
:10591000FC93EE93129714966C9314973F5F029644
:105920001596E3CF02E010E051CF0F900F90DF917A
:10593000CF911F910F91FF90EF90BF90AF909F90EC
:105940008F9008951F920F920FB60F9211248F938C
:105950009F938091E1009091E100937F9093E1000B
:1059600083FF0FC01092E90091E09093EB0010923A
:10597000EC0092E39093ED001092EA0198E090938E
:10598000F00082FF22C093E09093E9009091F20032
:10599000992319F09AE39093E8009091DB01992301
:1059A00041F09091DB0191509093DB01911101C086
:1059B0005D9A9091E901992341F09091E90191500C
:1059C0009093E901911101C0289A84FF18C0809139
:1059D000E2008E7E81608093E2008091E1008F7E04
:1059E0008093E1008091DC018E7E80618093DC01F8
:1059F0009F918F910F900FBE0F901F90189580FF71
:105A0000F7CF8091E2008E7E80618093E2008091EA
:105A1000E1008E7E8093E1008091DC018E7E8160CA
:105A2000E5CF1F920F920FB60F921124CF92DF9203
:105A3000EF92FF920F931F932F933F934F935F9398
:105A40006F937F938F939F93AF93BF93EF93FF9346
:105A5000CF93DF93CDB7DEB76C97DEBFCDBF10928B
:105A6000E9008091E80083FF25C068E0CE014596FB
:105A70000E944D1882EF8093E8008D8987FF39C01E
:105A80009091E80090FFFCCF982F907609F034C1F8
:105A90009E894F89588D2F89F88C911131C080389B
:105AA00061F58091DA018093F1001092F1008EEFA0
:105AB0008093E8006C960FB6F894DEBF0FBECDBFA2
:105AC000DF91CF91FF91EF91BF91AF919F918F9116
:105AD0007F916F915F914F913F912F911F910F9106
